{
  "_format": "hh-sol-artifact-1",
  "contractName": "LayintonToken",
  "sourceName": "contracts/LayintonToken.sol",
  "abi": [
    {
      "inputs": [],
      "stateMutability": "nonpayable",
      "type": "constructor"
    },
    {
      "inputs": [
        {
          "internalType": "address",
          "name": "spender",
          "type": "address"
        },
        {
          "internalType": "uint256",
          "name": "allowance",
          "type": "uint256"
        },
        {
          "internalType": "uint256",
          "name": "needed",
          "type": "uint256"
        }
      ],
      "name": "ERC20InsufficientAllowance",
      "type": "error"
    },
    {
      "inputs": [
        {
          "internalType": "address",
          "name": "sender",
          "type": "address"
        },
        {
          "internalType": "uint256",
          "name": "balance",
          "type": "uint256"
        },
        {
          "internalType": "uint256",
          "name": "needed",
          "type": "uint256"
        }
      ],
      "name": "ERC20InsufficientBalance",
      "type": "error"
    },
    {
      "inputs": [
        {
          "internalType": "address",
          "name": "approver",
          "type": "address"
        }
      ],
      "name": "ERC20InvalidApprover",
      "type": "error"
    },
    {
      "inputs": [
        {
          "internalType": "address",
          "name": "receiver",
          "type": "address"
        }
      ],
      "name": "ERC20InvalidReceiver",
      "type": "error"
    },
    {
      "inputs": [
        {
          "internalType": "address",
          "name": "sender",
          "type": "address"
        }
      ],
      "name": "ERC20InvalidSender",
      "type": "error"
    },
    {
      "inputs": [
        {
          "internalType": "address",
          "name": "spender",
          "type": "address"
        }
      ],
      "name": "ERC20InvalidSpender",
      "type": "error"
    },
    {
      "inputs": [],
      "name": "NotOwner",
      "type": "error"
    },
    {
      "anonymous": false,
      "inputs": [
        {
          "indexed": true,
          "internalType": "address",
          "name": "owner",
          "type": "address"
        },
        {
          "indexed": true,
          "internalType": "address",
          "name": "spender",
          "type": "address"
        },
        {
          "indexed": false,
          "internalType": "uint256",
          "name": "value",
          "type": "uint256"
        }
      ],
      "name": "Approval",
      "type": "event"
    },
    {
      "anonymous": false,
      "inputs": [
        {
          "indexed": true,
          "internalType": "address",
          "name": "_to",
          "type": "address"
        },
        {
          "indexed": false,
          "internalType": "uint256",
          "name": "_amount",
          "type": "uint256"
        },
        {
          "indexed": false,
          "internalType": "uint256",
          "name": "_timestamp",
          "type": "uint256"
        }
      ],
      "name": "MintSuccessful",
      "type": "event"
    },
    {
      "anonymous": false,
      "inputs": [
        {
          "indexed": true,
          "internalType": "address",
          "name": "from",
          "type": "address"
        },
        {
          "indexed": true,
          "internalType": "address",
          "name": "to",
          "type": "address"
        },
        {
          "indexed": false,
          "internalType": "uint256",
          "name": "value",
          "type": "uint256"
        }
      ],
      "name": "Transfer",
      "type": "event"
    },
    {
      "inputs": [
        {
          "internalType": "address",
          "name": "owner",
          "type": "address"
        },
        {
          "internalType": "address",
          "name": "spender",
          "type": "address"
        }
      ],
      "name": "allowance",
      "outputs": [
        {
          "internalType": "uint256",
          "name": "",
          "type": "uint256"
        }
      ],
      "stateMutability": "view",
      "type": "function"
    },
    {
      "inputs": [
        {
          "internalType": "address",
          "name": "spender",
          "type": "address"
        },
        {
          "internalType": "uint256",
          "name": "value",
          "type": "uint256"
        }
      ],
      "name": "approve",
      "outputs": [
        {
          "internalType": "bool",
          "name": "",
          "type": "bool"
        }
      ],
      "stateMutability": "nonpayable",
      "type": "function"
    },
    {
      "inputs": [
        {
          "internalType": "address",
          "name": "account",
          "type": "address"
        }
      ],
      "name": "balanceOf",
      "outputs": [
        {
          "internalType": "uint256",
          "name": "",
          "type": "uint256"
        }
      ],
      "stateMutability": "view",
      "type": "function"
    },
    {
      "inputs": [],
      "name": "decimals",
      "outputs": [
        {
          "internalType": "uint8",
          "name": "",
          "type": "uint8"
        }
      ],
      "stateMutability": "view",
      "type": "function"
    },
    {
      "inputs": [
        {
          "internalType": "uint256",
          "name": "_amount",
          "type": "uint256"
        }
      ],
      "name": "mint",
      "outputs": [],
      "stateMutability": "nonpayable",
      "type": "function"
    },
    {
      "inputs": [],
      "name": "name",
      "outputs": [
        {
          "internalType": "string",
          "name": "",
          "type": "string"
        }
      ],
      "stateMutability": "view",
      "type": "function"
    },
    {
      "inputs": [],
      "name": "symbol",
      "outputs": [
        {
          "internalType": "string",
          "name": "",
          "type": "string"
        }
      ],
      "stateMutability": "view",
      "type": "function"
    },
    {
      "inputs": [],
      "name": "totalSupply",
      "outputs": [
        {
          "internalType": "uint256",
          "name": "",
          "type": "uint256"
        }
      ],
      "stateMutability": "view",
      "type": "function"
    },
    {
      "inputs": [
        {
          "internalType": "address",
          "name": "to",
          "type": "address"
        },
        {
          "internalType": "uint256",
          "name": "value",
          "type": "uint256"
        }
      ],
      "name": "transfer",
      "outputs": [
        {
          "internalType": "bool",
          "name": "",
          "type": "bool"
        }
      ],
      "stateMutability": "nonpayable",
      "type": "function"
    },
    {
      "inputs": [
        {
          "internalType": "address",
          "name": "from",
          "type": "address"
        },
        {
          "internalType": "address",
          "name": "to",
          "type": "address"
        },
        {
          "internalType": "uint256",
          "name": "value",
          "type": "uint256"
        }
      ],
      "name": "transferFrom",
      "outputs": [
        {
          "internalType": "bool",
          "name": "",
          "type": "bool"
        }
      ],
      "stateMutability": "nonpayable",
      "type": "function"
    }
  ],
  "bytecode": "0x60a06040523480156200001157600080fd5b506040518060400160405280600881526020017f4c4159494e544f4e0000000000000000000000000000000000000000000000008152506040518060400160405280600481526020017f4c4159490000000000000000000000000000000000000000000000000000000081525081600390816200008f919062000631565b508060049081620000a1919062000631565b5050503373ffffffffffffffffffffffffffffffffffffffff1660808173ffffffffffffffffffffffffffffffffffffffff1681525050620000f4336969e10de76676d0800000620000fa60201b60201c565b6200084f565b600073ffffffffffffffffffffffffffffffffffffffff168273ffffffffffffffffffffffffffffffffffffffff16036200016f5760006040517fec442f050000000000000000000000000000000000000000000000000000000081526004016200016691906200075d565b60405180910390fd5b62000183600083836200018760201b60201c565b5050565b600073ffffffffffffffffffffffffffffffffffffffff168373ffffffffffffffffffffffffffffffffffffffff1603620001dd578060026000828254620001d09190620007a9565b92505081905550620002b3565b60008060008573ffffffffffffffffffffffffffffffffffffffff1673ffffffffffffffffffffffffffffffffffffffff168152602001908152602001600020549050818110156200026c578381836040517fe450d38c0000000000000000000000000000000000000000000000000000000081526004016200026393929190620007f5565b60405180910390fd5b8181036000808673ffffffffffffffffffffffffffffffffffffffff1673ffffffffffffffffffffffffffffffffffffffff16815260200190815260200160002081905550505b600073ffffffffffffffffffffffffffffffffffffffff168273ffffffffffffffffffffffffffffffffffffffff1603620002fe57806002600082825403925050819055506200034b565b806000808473ffffffffffffffffffffffffffffffffffffffff1673ffffffffffffffffffffffffffffffffffffffff168152602001908152602001600020600082825401925050819055505b8173ffffffffffffffffffffffffffffffffffffffff168373ffffffffffffffffffffffffffffffffffffffff167fddf252ad1be2c89b69c2b068fc378daa952ba7f163c4a11628f55a4df523b3ef83604051620003aa919062000832565b60405180910390a3505050565b600081519050919050565b7f4e487b7100000000000000000000000000000000000000000000000000000000600052604160045260246000fd5b7f4e487b7100000000000000000000000000000000000000000000000000000000600052602260045260246000fd5b600060028204905060018216806200043957607f821691505b6020821081036200044f576200044e620003f1565b5b50919050565b60008190508160005260206000209050919050565b60006020601f8301049050919050565b600082821b905092915050565b600060088302620004b97fffffffffffffffffffffffffffffffffffffffffffffffffffffffffffffffff826200047a565b620004c586836200047a565b95508019841693508086168417925050509392505050565b6000819050919050565b6000819050919050565b6000620005126200050c6200050684620004dd565b620004e7565b620004dd565b9050919050565b6000819050919050565b6200052e83620004f1565b620005466200053d8262000519565b84845462000487565b825550505050565b600090565b6200055d6200054e565b6200056a81848462000523565b505050565b5b8181101562000592576200058660008262000553565b60018101905062000570565b5050565b601f821115620005e157620005ab8162000455565b620005b6846200046a565b81016020851015620005c6578190505b620005de620005d5856200046a565b8301826200056f565b50505b505050565b600082821c905092915050565b60006200060660001984600802620005e6565b1980831691505092915050565b6000620006218383620005f3565b9150826002028217905092915050565b6200063c82620003b7565b67ffffffffffffffff811115620006585762000657620003c2565b5b62000664825462000420565b6200067182828562000596565b600060209050601f831160018114620006a9576000841562000694578287015190505b620006a0858262000613565b86555062000710565b601f198416620006b98662000455565b60005b82811015620006e357848901518255600182019150602085019450602081019050620006bc565b86831015620007035784890151620006ff601f891682620005f3565b8355505b6001600288020188555050505b505050505050565b600073ffffffffffffffffffffffffffffffffffffffff82169050919050565b6000620007458262000718565b9050919050565b620007578162000738565b82525050565b60006020820190506200077460008301846200074c565b92915050565b7f4e487b7100000000000000000000000000000000000000000000000000000000600052601160045260246000fd5b6000620007b682620004dd565b9150620007c383620004dd565b9250828201905080821115620007de57620007dd6200077a565b5b92915050565b620007ef81620004dd565b82525050565b60006060820190506200080c60008301866200074c565b6200081b6020830185620007e4565b6200082a6040830184620007e4565b949350505050565b6000602082019050620008496000830184620007e4565b92915050565b60805161108b6200086b60003960006103fa015261108b6000f3fe608060405234801561001057600080fd5b506004361061009e5760003560e01c806370a082311161006657806370a082311461015d57806395d89b411461018d578063a0712d68146101ab578063a9059cbb146101c7578063dd62ed3e146101f75761009e565b806306fdde03146100a3578063095ea7b3146100c157806318160ddd146100f157806323b872dd1461010f578063313ce5671461013f575b600080fd5b6100ab610227565b6040516100b89190610c47565b60405180910390f35b6100db60048036038101906100d69190610d02565b6102b9565b6040516100e89190610d5d565b60405180910390f35b6100f96102dc565b6040516101069190610d87565b60405180910390f35b61012960048036038101906101249190610da2565b6102e6565b6040516101369190610d5d565b60405180910390f35b610147610315565b6040516101549190610e11565b60405180910390f35b61017760048036038101906101729190610e2c565b61031e565b6040516101849190610d87565b60405180910390f35b610195610366565b6040516101a29190610c47565b60405180910390f35b6101c560048036038101906101c09190610e59565b6103f8565b005b6101e160048036038101906101dc9190610d02565b6104ed565b6040516101ee9190610d5d565b60405180910390f35b610211600480360381019061020c9190610e86565b610510565b60405161021e9190610d87565b60405180910390f35b60606003805461023690610ef5565b80601f016020809104026020016040519081016040528092919081815260200182805461026290610ef5565b80156102af5780601f10610284576101008083540402835291602001916102af565b820191906000526020600020905b81548152906001019060200180831161029257829003601f168201915b5050505050905090565b6000806102c4610597565b90506102d181858561059f565b600191505092915050565b6000600254905090565b6000806102f1610597565b90506102fe8582856105b1565b610309858585610645565b60019150509392505050565b60006012905090565b60008060008373ffffffffffffffffffffffffffffffffffffffff1673ffffffffffffffffffffffffffffffffffffffff168152602001908152602001600020549050919050565b60606004805461037590610ef5565b80601f01602080910402602001604051908101604052809291908181526020018280546103a190610ef5565b80156103ee5780601f106103c3576101008083540402835291602001916103ee565b820191906000526020600020905b8154815290600101906020018083116103d157829003601f168201915b5050505050905090565b7f000000000000000000000000000000000000000000000000000000000000000073ffffffffffffffffffffffffffffffffffffffff163373ffffffffffffffffffffffffffffffffffffffff161461047d576040517f30cd747100000000000000000000000000000000000000000000000000000000815260040160405180910390fd5b61049a33670de0b6b3a7640000836104959190610f55565b610739565b3373ffffffffffffffffffffffffffffffffffffffff167fd487c6ad16ac879a595219f386dd2a72a90cb14c9dec17eec7756e51cfd2172382426040516104e2929190610f97565b60405180910390a250565b6000806104f8610597565b9050610505818585610645565b600191505092915050565b6000600160008473ffffffffffffffffffffffffffffffffffffffff1673ffffffffffffffffffffffffffffffffffffffff16815260200190815260200160002060008373ffffffffffffffffffffffffffffffffffffffff1673ffffffffffffffffffffffffffffffffffffffff16815260200190815260200160002054905092915050565b600033905090565b6105ac83838360016107bb565b505050565b60006105bd8484610510565b90507fffffffffffffffffffffffffffffffffffffffffffffffffffffffffffffffff811461063f578181101561062f578281836040517ffb8f41b200000000000000000000000000000000000000000000000000000000815260040161062693929190610fcf565b60405180910390fd5b61063e848484840360006107bb565b5b50505050565b600073ffffffffffffffffffffffffffffffffffffffff168373ffffffffffffffffffffffffffffffffffffffff16036106b75760006040517f96c6fd1e0000000000000000000000000000000000000000000000000000000081526004016106ae9190611006565b60405180910390fd5b600073ffffffffffffffffffffffffffffffffffffffff168273ffffffffffffffffffffffffffffffffffffffff16036107295760006040517fec442f050000000000000000000000000000000000000000000000000000000081526004016107209190611006565b60405180910390fd5b610734838383610992565b505050565b600073ffffffffffffffffffffffffffffffffffffffff168273ffffffffffffffffffffffffffffffffffffffff16036107ab5760006040517fec442f050000000000000000000000000000000000000000000000000000000081526004016107a29190611006565b60405180910390fd5b6107b760008383610992565b5050565b600073ffffffffffffffffffffffffffffffffffffffff168473ffffffffffffffffffffffffffffffffffffffff160361082d5760006040517fe602df050000000000000000000000000000000000000000000000000000000081526004016108249190611006565b60405180910390fd5b600073ffffffffffffffffffffffffffffffffffffffff168373ffffffffffffffffffffffffffffffffffffffff160361089f5760006040517f94280d620000000000000000000000000000000000000000000000000000000081526004016108969190611006565b60405180910390fd5b81600160008673ffffffffffffffffffffffffffffffffffffffff1673ffffffffffffffffffffffffffffffffffffffff16815260200190815260200160002060008573ffffffffffffffffffffffffffffffffffffffff1673ffffffffffffffffffffffffffffffffffffffff16815260200190815260200160002081905550801561098c578273ffffffffffffffffffffffffffffffffffffffff168473ffffffffffffffffffffffffffffffffffffffff167f8c5be1e5ebec7d5bd14f71427d1e84f3dd0314c0f7b2291e5b200ac8c7c3b925846040516109839190610d87565b60405180910390a35b50505050565b600073ffffffffffffffffffffffffffffffffffffffff168373ffffffffffffffffffffffffffffffffffffffff16036109e45780600260008282546109d89190611021565b92505081905550610ab7565b60008060008573ffffffffffffffffffffffffffffffffffffffff1673ffffffffffffffffffffffffffffffffffffffff16815260200190815260200160002054905081811015610a70578381836040517fe450d38c000000000000000000000000000000000000000000000000000000008152600401610a6793929190610fcf565b60405180910390fd5b8181036000808673ffffffffffffffffffffffffffffffffffffffff1673ffffffffffffffffffffffffffffffffffffffff16815260200190815260200160002081905550505b600073ffffffffffffffffffffffffffffffffffffffff168273ffffffffffffffffffffffffffffffffffffffff1603610b005780600260008282540392505081905550610b4d565b806000808473ffffffffffffffffffffffffffffffffffffffff1673ffffffffffffffffffffffffffffffffffffffff168152602001908152602001600020600082825401925050819055505b8173ffffffffffffffffffffffffffffffffffffffff168373ffffffffffffffffffffffffffffffffffffffff167fddf252ad1be2c89b69c2b068fc378daa952ba7f163c4a11628f55a4df523b3ef83604051610baa9190610d87565b60405180910390a3505050565b600081519050919050565b600082825260208201905092915050565b60005b83811015610bf1578082015181840152602081019050610bd6565b60008484015250505050565b6000601f19601f8301169050919050565b6000610c1982610bb7565b610c238185610bc2565b9350610c33818560208601610bd3565b610c3c81610bfd565b840191505092915050565b60006020820190508181036000830152610c618184610c0e565b905092915050565b600080fd5b600073ffffffffffffffffffffffffffffffffffffffff82169050919050565b6000610c9982610c6e565b9050919050565b610ca981610c8e565b8114610cb457600080fd5b50565b600081359050610cc681610ca0565b92915050565b6000819050919050565b610cdf81610ccc565b8114610cea57600080fd5b50565b600081359050610cfc81610cd6565b92915050565b60008060408385031215610d1957610d18610c69565b5b6000610d2785828601610cb7565b9250506020610d3885828601610ced565b9150509250929050565b60008115159050919050565b610d5781610d42565b82525050565b6000602082019050610d726000830184610d4e565b92915050565b610d8181610ccc565b82525050565b6000602082019050610d9c6000830184610d78565b92915050565b600080600060608486031215610dbb57610dba610c69565b5b6000610dc986828701610cb7565b9350506020610dda86828701610cb7565b9250506040610deb86828701610ced565b9150509250925092565b600060ff82169050919050565b610e0b81610df5565b82525050565b6000602082019050610e266000830184610e02565b92915050565b600060208284031215610e4257610e41610c69565b5b6000610e5084828501610cb7565b91505092915050565b600060208284031215610e6f57610e6e610c69565b5b6000610e7d84828501610ced565b91505092915050565b60008060408385031215610e9d57610e9c610c69565b5b6000610eab85828601610cb7565b9250506020610ebc85828601610cb7565b9150509250929050565b7f4e487b7100000000000000000000000000000000000000000000000000000000600052602260045260246000fd5b60006002820490506001821680610f0d57607f821691505b602082108103610f2057610f1f610ec6565b5b50919050565b7f4e487b7100000000000000000000000000000000000000000000000000000000600052601160045260246000fd5b6000610f6082610ccc565b9150610f6b83610ccc565b9250828202610f7981610ccc565b91508282048414831517610f9057610f8f610f26565b5b5092915050565b6000604082019050610fac6000830185610d78565b610fb96020830184610d78565b9392505050565b610fc981610c8e565b82525050565b6000606082019050610fe46000830186610fc0565b610ff16020830185610d78565b610ffe6040830184610d78565b949350505050565b600060208201905061101b6000830184610fc0565b92915050565b600061102c82610ccc565b915061103783610ccc565b925082820190508082111561104f5761104e610f26565b5b9291505056fea264697066735822122019637c59ec83691c2aac10a7a9a6d1e9499dc346d62aa03575c35c47f1337c6b64736f6c63430008180033",
  "linkReferences": {},
  "deployedLinkReferences": {}
}