{
  "_format": "hh-sol-artifact-1",
  "contractName": "StakeEther",
  "sourceName": "contracts/StakeEther.sol",
  "abi": [
    {
      "inputs": [],
      "stateMutability": "nonpayable",
      "type": "constructor"
    },
    {
      "inputs": [],
      "name": "AddressZeroDetected",
      "type": "error"
    },
    {
      "inputs": [],
      "name": "InsufficientFunds",
      "type": "error"
    },
    {
      "inputs": [],
      "name": "LIQUIDATIONTIMENOTREACHEDYET",
      "type": "error"
    },
    {
      "inputs": [],
      "name": "NotOwner",
      "type": "error"
    },
    {
      "inputs": [],
      "name": "ZeroValueNotAllowed",
      "type": "error"
    },
    {
      "anonymous": false,
      "inputs": [
        {
          "indexed": true,
          "internalType": "address",
          "name": "user",
          "type": "address"
        },
        {
          "indexed": true,
          "internalType": "uint256",
          "name": "amount",
          "type": "uint256"
        }
      ],
      "name": "StakeSuccessful",
      "type": "event"
    },
    {
      "anonymous": false,
      "inputs": [
        {
          "indexed": true,
          "internalType": "address",
          "name": "user",
          "type": "address"
        },
        {
          "indexed": true,
          "internalType": "uint256",
          "name": "amount",
          "type": "uint256"
        }
      ],
      "name": "WithdrawalSuccessful",
      "type": "event"
    },
    {
      "inputs": [],
      "name": "getContractBal",
      "outputs": [
        {
          "internalType": "uint256",
          "name": "",
          "type": "uint256"
        }
      ],
      "stateMutability": "view",
      "type": "function"
    },
    {
      "inputs": [],
      "name": "getUserBal",
      "outputs": [
        {
          "internalType": "uint256",
          "name": "",
          "type": "uint256"
        }
      ],
      "stateMutability": "view",
      "type": "function"
    },
    {
      "inputs": [],
      "name": "stake",
      "outputs": [],
      "stateMutability": "payable",
      "type": "function"
    },
    {
      "inputs": [],
      "name": "withdrawStake",
      "outputs": [],
      "stateMutability": "payable",
      "type": "function"
    },
    {
      "stateMutability": "payable",
      "type": "receive"
    }
  ],
  "bytecode": "0x60a060405234801561001057600080fd5b503373ffffffffffffffffffffffffffffffffffffffff1660808173ffffffffffffffffffffffffffffffffffffffff16815250506080516109aa610060600039600061029a01526109aa6000f3fe6080604052600436106100435760003560e01c806317cc5e1e1461004f5780633a4b66f11461007a5780635d9fa6fc14610084578063bed9d861146100af5761004a565b3661004a57005b600080fd5b34801561005b57600080fd5b506100646100b9565b604051610071919061075d565b60405180910390f35b610082610117565b005b34801561009057600080fd5b50610099610296565b6040516100a6919061075d565b60405180910390f35b6100b7610323565b005b6000806100c533610667565b6000803373ffffffffffffffffffffffffffffffffffffffff1673ffffffffffffffffffffffffffffffffffffffff1681526020019081526020016000205461010e91906107a7565b90508091505090565b600073ffffffffffffffffffffffffffffffffffffffff163373ffffffffffffffffffffffffffffffffffffffff160361017d576040517f287170f900000000000000000000000000000000000000000000000000000000815260040160405180910390fd5b600034116101b7576040517f9cf8540c00000000000000000000000000000000000000000000000000000000815260040160405180910390fd5b346000803373ffffffffffffffffffffffffffffffffffffffff1673ffffffffffffffffffffffffffffffffffffffff168152602001908152602001600020600082825461020591906107a7565b9250508190555042600160003373ffffffffffffffffffffffffffffffffffffffff1673ffffffffffffffffffffffffffffffffffffffff16815260200190815260200160002081905550343373ffffffffffffffffffffffffffffffffffffffff167fb6e7cd31c791fae5c986d5b24f97384a6ad8e474fa37e53ed080e1a010613a8b60405160405180910390a3565b60007f000000000000000000000000000000000000000000000000000000000000000073ffffffffffffffffffffffffffffffffffffffff163373ffffffffffffffffffffffffffffffffffffffff161461031d576040517f30cd747100000000000000000000000000000000000000000000000000000000815260040160405180910390fd5b47905090565b600073ffffffffffffffffffffffffffffffffffffffff163373ffffffffffffffffffffffffffffffffffffffff1603610389576040517f287170f900000000000000000000000000000000000000000000000000000000815260040160405180910390fd5b62278d00600160003373ffffffffffffffffffffffffffffffffffffffff1673ffffffffffffffffffffffffffffffffffffffff16815260200190815260200160002054426103d891906107db565b1015610410576040517f71d4b6fb00000000000000000000000000000000000000000000000000000000815260040160405180910390fd5b60008060003373ffffffffffffffffffffffffffffffffffffffff1673ffffffffffffffffffffffffffffffffffffffff1681526020019081526020016000205411610488576040517f356680b700000000000000000000000000000000000000000000000000000000815260040160405180910390fd5b600061049333610667565b905060008060003373ffffffffffffffffffffffffffffffffffffffff1673ffffffffffffffffffffffffffffffffffffffff168152602001908152602001600020549050600082826104e691906107a7565b905060008060003373ffffffffffffffffffffffffffffffffffffffff1673ffffffffffffffffffffffffffffffffffffffff168152602001908152602001600020819055506000600160003373ffffffffffffffffffffffffffffffffffffffff1673ffffffffffffffffffffffffffffffffffffffff1681526020019081526020016000208190555060003373ffffffffffffffffffffffffffffffffffffffff168260405161059790610840565b60006040518083038185875af1925050503d80600081146105d4576040519150601f19603f3d011682016040523d82523d6000602084013e6105d9565b606091505b505090508061061d576040517f08c379a0000000000000000000000000000000000000000000000000000000008152600401610614906108b2565b60405180910390fd5b813373ffffffffffffffffffffffffffffffffffffffff167ff4f855c53853d0277a9ff688aadbfe4cb795ca1d5af41704b62cb539f89939ec60405160405180910390a350505050565b600080600160008473ffffffffffffffffffffffffffffffffffffffff1673ffffffffffffffffffffffffffffffffffffffff16815260200190815260200160002054426106b591906107db565b905060008060008573ffffffffffffffffffffffffffffffffffffffff1673ffffffffffffffffffffffffffffffffffffffff16815260200190815260200160002054905060006301e1338061271061070e91906108d2565b90506000818461012c8561072291906108d2565b61072c91906108d2565b6107369190610943565b905080945050505050919050565b6000819050919050565b61075781610744565b82525050565b6000602082019050610772600083018461074e565b92915050565b7f4e487b7100000000000000000000000000000000000000000000000000000000600052601160045260246000fd5b60006107b282610744565b91506107bd83610744565b92508282019050808211156107d5576107d4610778565b5b92915050565b60006107e682610744565b91506107f183610744565b925082820390508181111561080957610808610778565b5b92915050565b600081905092915050565b50565b600061082a60008361080f565b91506108358261081a565b600082019050919050565b600061084b8261081d565b9150819050919050565b600082825260208201905092915050565b7f5769746864726177616c204661696c6564000000000000000000000000000000600082015250565b600061089c601183610855565b91506108a782610866565b602082019050919050565b600060208201905081810360008301526108cb8161088f565b9050919050565b60006108dd82610744565b91506108e883610744565b92508282026108f681610744565b9150828204841483151761090d5761090c610778565b5b5092915050565b7f4e487b7100000000000000000000000000000000000000000000000000000000600052601260045260246000fd5b600061094e82610744565b915061095983610744565b92508261096957610968610914565b5b82820490509291505056fea26469706673582212208512b45227de1d6a4e3905796368e85b4243ee96ac817650c55c2628e1c3944164736f6c63430008180033",
  "linkReferences": {},
  "deployedLinkReferences": {}
}